:100000000C941B010C9445010C9445010C94450182
:100010000C9445010C9445010C9445010C94450148
:100020000C9445010C9445010C9445010C94450138
:100030000C9445010C9445010C9445010C94450128
:100040000C9445010C9445010C941F410C944501FE
:100050000C9445010C9445010C9445010C94450108
:100060000C9445010C9445010C9445010C944501F8
:100070000C9431440C9467440C9445010C94450154
:100080000C9445010C9445010C94450107634236DC
:10009000B79BD8A71A39685618AEBAAB558C1D3C19
:1000A000B7CC5763BD6DEDFD753EF6177231BF00DD
:1000B0000000803F08000000BE922449123EABAA17
:1000C000AA2ABECDCCCC4C3E00000080BEABAAAA72
:1000D000AA3E00000000BF000000803F00000000BA
:1000E00000084178D3BB4387D1133D190E3CC3BDF3
:1000F0004282AD2B3E68EC8276BED98FE1A93E4CA0
:1001000080EFFFBE01C4FF7F3F0000000000202001
:10011000200031333A4C464F2F464D2F414D003190
:10012000323A416D70204D6F640031313A5353477C
:100130002D45470031303A52656C6561736500307A
:10014000393A446563617920320030383A53757327
:100150007461696E0030373A44656361792031001B
:1001600030363A41747461636B0030353A526174D1
:1001700065205363616C650030343A446574756E74
:10018000652D4D756C0030333A46726571204D75A2
:100190006C74700030323A4F5020566F6C756D653C
:1001A0000030313A416C672046422050616E002099
:1001B000200020000000000203000A0B00000000E5
:1001C0000504090800000000000000000000000015
:1001D0000000000001020408102040800102040811
:1001E0001020408001020408102040800102040811
:1001F00010204080020202020202020204040404EF
:1002000004040404030303030303030301010101C2
:100210000101010100002000230026002900000048
:100220002200250028002B000000210024002700C8
:100230002A00940F9B4411241FBECFEFD0E4DEBFF1
:10024000CDBF13E0A0E0B1E0E8EFFBE900E00BBFB9
:1002500002C007900D92AE30B107D9F720E1AEE0B1
:10026000B3E001C01D92A837B207E1F711E0CBE17E
:10027000D1E004C02197FE010E941F4AC931D10775
:10028000C9F70E9425460C94FA4D0C94000090E0AA
:1002900080E008950895CF93DF931F92CDB7DEB726
:1002A000698341E050E0BE016F5F7F4F04960E947A
:1002B000F42F0F90DF91CF9108956F927F928F92DC
:1002C0009F92AF92BF92CF92DF92EF92FF920F93E5
:1002D0001F93CF93DF9380911D010E94D0425C0158
:1002E00080911C010E94D0426C0180911B010E94F0
:1002F000D042EC0180911A010E94D0427C01809191
:1003000019010E94D0428C01809118010E94D042B4
:100310004C01809117010E94D0423C010E9469412A
:100320002091AD0F3091AE0F4091AF0F5091B00FB3
:10033000621B730B840B950B693C7105810591055C
:1003400008F476C0AB28E1F40E9469416093AD0FD8
:100350007093AE0F8093AF0F9093B00FC4E0D0E0D6
:10036000CE01DF91CF911F910F91FF90EF90DF9021
:10037000CF90BF90AF909F908F907F906F90089597
:10038000CD2869F40E9469416093AD0F7093AE0F60
:100390008093AF0F9093B00FC3E0D0E0E1CF2097F0
:1003A00059F40E9469416093AD0F7093AE0F809332
:1003B000AF0F9093B00FD4CFEF2869F40E9469413A
:1003C0006093AD0F7093AE0F8093AF0F9093B00F0B
:1003D000C1E0D0E0C5CF012B69F40E946941609370
:1003E000AD0F7093AE0F8093AF0F9093B00FC2E03C
:1003F000D0E0B6CF892869F40E9469416093AD0FBF
:100400007093AE0F8093AF0F9093B00FC5E0D0E024
:10041000A7CF672869F40E9469416093AD0F70937C
:10042000AE0F8093AF0F9093B00FC6E0D0E098CF9F
:10043000C7E0D0E095CF1F93CF93DF93CDB7DEB762
:1004400062970FB6F894DEBF0FBECDBF182F40E005
:1004500068E671E088E09DE00E94762F811116C069
:1004600082EB9FE00E94154040E060E082EB9FE05D
:100470000E941C406AE671E082EB9FE00E942845E2
:1004800068E873E180E090E00E949A411092030DC9
:100490001092020D8091020D9091030D873E9340C2
:1004A00008F04CC040E068E07DE08CE29DE00E94F6
:1004B0000E2E882309F442C080912C0D8271C9F55B
:1004C000E091020DF091030DEE0FFF1FEC5CFA4F6F
:1004D0008091300D9091310D91838083112301F132
:1004E00041E150E0BE016F5F7F4F8CE29DE00E94D2
:1004F00050321A8A64E071E0CE0101960E94FC4AF3
:10050000892B71F48091020D80935C0480935D04CB
:1005100080935E0480935F04809360048093610401
:100520008091020D9091030D01969093030D80939D
:10053000020D8CE29DE00E94E32EACCF62960FB6D6
:10054000F894DEBF0FBECDBFDF91CF911F9108950C
:10055000EF92FF920F931F93CF93DF93CDB7DEB748
:10056000C656D1090FB6F894DEBF0FBECDBFE091DD
:100570002601F0E0E55AFB4FE081EE0FFF0BEC5C4B
:10058000FA4F4081518121E068E07DE08CE29DE0FE
:100590000E947F2F811110C082EB9FE00E941540C6
:1005A00040E060E082EB9FE00E941C4066E771E063
:1005B00082EB9FE00E94284581E0809326016091B4
:1005C000130362956F7070E090E080E00E944C47EA
:1005D00020E030E040E05FE30E9436460E9414478E
:1005E0007A8369836091140362956F7070E090E084
:1005F00080E00E944C4720E030E040E05FE30E9452
:1006000036460E9414477C836B8360911503669580
:100610006695669570E090E080E00E944C4720E08F
:1006200030E040E05FE30E9436460E9414477E833C
:100630006D8360911F0366956695669570E090E006
:1006400080E00E944C4720E030E040E05FE30E9401
:1006500036460E9414477A8F698F60912903669508
:100660006695669570E090E080E00E944C4720E03F
:1006700030E040E05FE30E9436460E9414477EA7C8
:100680006DA76091330366956695669570E090E07E
:1006900080E00E944C4720E030E040E05FE30E94B1
:1006A00036460E94144723967FAF6EAF2397609122
:1006B000160362956695677070E090E080E00E9496
:1006C0004C4720E030E040E05FE30E9436460E9465
:1006D000144778876F8360912003629566956770F1
:1006E00070E090E080E00E944C4720E030E040E085
:1006F0005FE30E9436460E9414477C8F6B8F6091A7
:100700002A0362956695677070E090E080E00E9431
:100710004C4720E030E040E05FE30E9436460E9414
:10072000144778AB6FA76091340362956695677044
:1007300070E090E080E00E944C4720E030E040E034
:100740005FE30E9436460E94144725967FAF6EAF46
:100750002597809117030FE710E09801281B3109B6
:100760003A87298780912103F801E81BF109FE8F60
:10077000ED8F80912B039801281B31093AAB29ABEF
:1007800080913503F801E81BF1092796FFAFEEAF22
:1007900027976091180362956695677070E090E006
:1007A00080E00E944C4720E030E040E05FE30E94A0
:1007B00036460E9414477C876B87609122036295BE
:1007C0006695677070E090E080E00E944C4720E002
:1007D00030E040E05FE30E9436460E94144778A371
:1007E0006F8F60912C0362956695677070E090E062
:1007F00080E00E944C4720E030E040E05FE30E9450
:1008000036460E9414477CAB6BAB60913603629511
:100810006695677070E090E080E00E944C4720E0B1
:1008200030E040E05FE30E9436460E94144729967C
:100830007FAF6EAF2997609119036695669570E05A
:1008400090E080E00E944C4720E030E040E05FE331
:100850000E9436460E9414477E876D87609123036D
:100860006695669570E090E080E00E944C4720E03D
:1008700030E040E05FE30E9436460E9414477AA3CE
:1008800069A360912D036695669570E090E080E025
:100890000E944C4720E030E040E05FE30E94364693
:1008A0000E9414477EAB6DAB6091370366956695E9
:1008B00070E090E080E00E944C4720E030E040E0B3
:1008C0005FE30E9436460E9414472B967FAF6EAFBF
:1008D0002B9760911A036695669570E090E080E032
:1008E0000E944C4720E030E040E05FE30E94364643
:1008F0000E941447788B6F876091240366956695F4
:1009000070E090E080E00E944C4720E030E040E062
:100910005FE30E9436460E9414477CA36BA360915C
:100920002E036695669570E090E080E00E944C474B
:1009300020E030E040E05FE30E9436460E9414472A
:1009400078AF6FAB609138036695669570E090E084
:1009500080E00E944C4720E030E040E05FE30E94EE
:1009600036460E9414472D967FAF6EAF2D9780912B
:100970001D03081B110917FF02C0095F1F4F33E059
:10098000159507953A95E1F7B801012E000C880BF3
:10099000990B0E944C4720E030E040E05FE317FDF8
:1009A000BFC10E9436460E9414477E8B6D8B2091FA
:1009B00027038FE790E0821B910997FD07968C0132
:1009C00023E0159507952A95E1F7B801012E000C53
:1009D000880B990B0E944C4720E030E040E05FE339
:1009E00017FDA1C10E9436460E9414477AA769A745
:1009F000209131038FE790E0821B910997FD0796C4
:100A00008C0193E0159507959A95E1F7B801012EB1
:100A1000000C880B990B0E944C4720E030E040E02E
:100A20005FE317FD83C10E9436460E9414477EAFE4
:100A30006DAF20913B038FE790E0821B910997FDFA
:100A400007968C0183E0159507958A95E1F7B80123
:100A5000012E000C880B990B0E944C4720E030E0DF
:100A600040E05FE317FD65C10E9436460E941447CF
:100A700063967FAF6EAF639760911B036695669533
:100A8000669570E090E080E00E944C4720E030E006
:100A900040E05FE30E9436460E9414477A8B698BE0
:100AA0006091250366956695669570E090E080E01C
:100AB0000E944C4720E030E040E05FE30E94364671
:100AC0000E9414477EA36DA360912F0366956695DF
:100AD000669570E090E080E00E944C4720E030E0B6
:100AE00040E05FE30E9436460E9414477AAF69AF48
:100AF0006091390366956695669570E090E080E0B8
:100B00000E944C4720E030E040E05FE30E94364620
:100B10000E9414472F967FAF6EAF2F9760911C03F2
:100B200066956695669570E090E080E00E944C477F
:100B300020E030E040E05FE30E9436460E94144728
:100B40007C8B6B8B6091260366956695669570E04D
:100B500090E080E00E944C4720E030E040E05FE31E
:100B60000E9436460E94144778A76FA36091300315
:100B700066956695669570E090E080E00E944C472F
:100B800020E030E040E05FE30E9436460E941447D8
:100B90007CAF6BAF60913A0366956695669570E0A1
:100BA00090E080E00E944C4720E030E040E05FE3CE
:100BB0000E9436460E94144761967FAF6EAF6197E0
:100BC00060911E0366956695669570E090E080E002
:100BD0000E944C4720E030E040E05FE30E94364650
:100BE0000E941447788F6F8B6091280366956695F5
:100BF000669570E090E080E00E944C4720E030E095
:100C000040E05FE30E9436460E9414477CA76BA732
:100C10006091320366956695669570E090E080E09D
:100C20000E944C4720E030E040E05FE30E943646FF
:100C30000E94144721967FAF6EAF219760913C03CD
:100C400066956695669570E090E080E00E944C475E
:100C500020E030E040E05FE30E9436460E94144707
:100C600065967FAF6EAF65979E012F5F3F4F79010D
:100C70008E010B5A1F4FF7016081F2E0EF0EF11C5D
:100C800088E29DE00E944B010E151F05A1F741E18E
:100C900050E0B8018CE29DE00E945032F801118AC8
:100CA0008CE29DE00E94E32E82EB9FE00E941540C3
:100CB00040E060E082EB9FE00E941C4066E871E04B
:100CC00082EB9FE00E94284541E060E082EB9FE0DC
:100CD0000E941C40B80182EB9FE00E94284560ED15
:100CE00077E080E090E00E949A410E946941609321
:100CF000A90F7093AA0F8093AB0F9093AC0F81E074
:100D00008093A80FCA59DF4F0FB6F894DEBF0FBE0D
:100D1000CDBFDF91CF911F910F91FF90EF9008957C
:100D20000E94354640CE0E9435465ECE0E94354632
:100D30007CCE0E9435469ACECF93DF9384369105C0
:100D40008CF4EC0167E472E082EB9FE00E9428459E
:100D50002A9744F467E472E082EB9FE0DF91CF9141
:100D60000C942845DF91CF910895CF93DF9384367B
:100D700091058CF4EC0162E972E082EB9FE00E9445
:100D800028452A9744F462E972E082EB9FE0DF9104
:100D9000CF910C942845DF91CF910895DC018D917E
:100DA0009C91DC01ED91FC910190F081E02D099482
:100DB0006D3F48F46A3F10F4683F39F4FC018081CC
:100DC00091810C94CE066E3FC8F70895EF92FF9282
:100DD0000F931F93CF93DF930150003120F567FFEE
:100DE00022C0D22F142FC62F7C01602F6C2BFC0148
:100DF00082A593A50E94CE06612F6F77F70182A589
:100E000093A50E94CE06CF7EC03C69F06D2F6F7710
:100E1000F70182A593A5DF91CF911F910F91FF90CC
:100E2000EF900C94CE06DF91CF911F910F91FF9020
:100E3000EF9008950F93613E20F40E94E6060F9113
:100E40000895683FE0F38A960F910C94D8060F93AB
:100E5000022F242F462F60EB0E94E6060F91089583
:100E60002F923F924F925F926F927F928F929F92BA
:100E7000AF92BF92CF92DF92EF92FF920F931F93A8
:100E8000CF93DF93CDB7DEB728970FB6F894DEBFC8
:100E90000FBECDBF98878F83362EDC014C914295D3
:100EA000407F262F6EE082E694E00E942707EF81C4
:100EB000F88542814295407F232D6FE082E694E0E1
:100EC0000E942707AF81B88514964C91440F440FB8
:100ED000440F232D64E182E694E00E942707EF810E
:100EE000F885408D440F440F440F232D65E182E6C1
:100EF00094E00E942707AF81B8859C964C91440FDF
:100F0000440F440F232D66E182E694E00E942707F8
:100F10008F809884B0E48B0E911CF4014081440FC3
:100F2000440F440F232D67E182E694E00E942707D7
:100F3000AF81B88516964C914295440F407E232D83
:100F400068E182E694E00E942707EF81F885428DF0
:100F50004295440F407E232D69E182E694E00E9491
:100F60002707AF81B8859E964C914295440F407EED
:100F7000232D6AE182E694E00E942707AF80B884BF
:100F8000B2E4AB0EB11CF50140814295440F407EA6
:100F9000232D6BE182E694E00E9427078FE7282E3D
:100FA000AF81B88518968C91422D481B232D60E1A6
:100FB00082E694E00E942707EF81F885848D422D18
:100FC000481B232D61E182E694E00E942707AF8150
:100FD000B885D0968C91422D481B232D62E182E684
:100FE00094E00E942707CF80D884B4E4CB0ED11CB4
:100FF000F6018081422D481B232D63E182E694E0B7
:101000000E942707AF81B8851A964C914295440FEC
:10101000407E232D67E282E694E00E942707EF815D
:10102000F885468D4295440F407E232D68E282E686
:1010300094E00E942707AF81B885D2964C914295E3
:10104000440F407E232D69E282E694E00E94270748
:10105000EF80F884B6E4EB0EF11CF7014081429575
:10106000440F407E232D6AE282E694E00E94270727
:10107000AF81B8851C964C91440F440F232D6BE231
:1010800082E694E00E942707EF81F88540A1440F93
:10109000440F232D6CE282E694E00E942707AF8183
:1010A000B885D4964C91440F440F232D6DE282E60F
:1010B00094E00E9427070F811885085B1F4FF801F5
:1010C0004081440F440F232D6EE282E694E00E949B
:1010D0002707AF81B8851E964C91440F440F232DEE
:1010E0006FE282E694E00E942707EF81F88542A133
:1010F000440F440F232D60E382E694E00E9427070B
:10110000AF81B885D6964C91440F440F232D61E3EF
:1011100082E694E00E9427076F807884BAE46B0E21
:10112000711CF3014081440F440F232D62E382E6DA
:1011300094E00E942707AF81B88554964C91440FE4
:10114000440F440F232D67E382E694E00E942707B3
:10115000EF81F88540A5440F440F440F232D68E329
:1011600082E694E00E942707AF81B885DC964C9117
:10117000440F440F440F232D69E382E694E00E945C
:1011800027074F805884B0E54B0E511CF201408177
:10119000440F440F440F232D6AE382E694E00E943B
:1011A0002707AF81B88550964C91440F440F440FE8
:1011B000232D63E382E694E00E942707EF81F88500
:1011C00044A1440F440F440F232D64E382E694E0CE
:1011D0000E942707AF81B885D8964C91440F440FE1
:1011E000440F232D65E382E694E00E942707EF81F8
:1011F000F885E45BFF4FFA83E9834081440F440F95
:10120000440F232D66E382E694E00E942707AF8116
:10121000B88552964C91440F440F440F232D6BE335
:1012200082E694E00E942707EF81F88546A1440FEB
:10123000440F440F232D6CE382E694E00E942707BD
:10124000AF81B885DA964C91440F440F440F232D9B
:101250006DE382E694E00E942707EF81F885E25B68
:10126000FF4FFC83EB834081440F440F440F232D39
:101270006EE382E694E00E942707AF81B885569618
:101280004C91440F440F440F232D6AE582E694E00D
:101290000E942707EF81F88542A5440F440F440FB1
:1012A000232D6BE582E694E00E942707AF81B88585
:1012B000DE964C91440F440F440F232D6CE582E6DB
:1012C00094E00E942707EF81F885EE5AFF4FFE83D6
:1012D000ED834081440F440F440F232D6DE582E6DA
:1012E00094E00E942707232D4AE56BE482E694E010
:1012F0000E942707232D4AE56CE482E694E00E94D1
:101300002707232D4FE76DE482E694E00E9427072C
:10131000232D40E066E482E694E00E942707232D17
:1013200040E067E482E694E00E942707232D40E036
:1013300068E482E694E00E942707232D40E069E4F8
:1013400082E694E00E942707809126018150990B44
:1013500022E3289FF001299FF00D1124ED5EFC4F40
:10136000AF81B8858C918295807F808312968C9115
:1013700012978295807F818314968C911497880FA1
:10138000880F880F828358968C915897880F880F02
:10139000880F84879C968C91880F880F880F868B86
:1013A000D4018C91880F880F880F80A3AF81B885F6
:1013B00016968C9116978295880F807E83835A9615
:1013C0008C915A978295880F807E85879E968C9106
:1013D0008295880F807E878BD5018C918295880FAE
:1013E000807E81A3AF81B88518968C91B22DB81BF1
:1013F000B483AF81B8855C968C91B22DB81BB6874B
:10140000AF81B885D0968C91B22DB81BB08FD60124
:101410008C91B22DB81BB2A3AF81B8851A968C916E
:101420001A978295880F807E85835E968C915E9751
:101430008295880F807E8787D2968C918295880FBF
:10144000807E818FD7018C918295880F807E83A3C7
:10145000AF81B8851C968C911C97880F880F868366
:1014600090968C919097880F880F808BD4968C9152
:10147000880F880F828FD8018C91880F880F84A3E2
:10148000AF81B8851E968C911E97880F880F878331
:1014900092968C919297880F880F818BD6968C911B
:1014A000880F880F838FD3018C91880F880F85A3B5
:1014B000AF81B88554968C91880F880F880FB22D14
:1014C000B81BB287AF81B88598968C91880F880F2A
:1014D000880FB22DB81BB48BAF81B885DC968C9188
:1014E000880F880F880FB22DB81BB68FD2018C9150
:1014F000880F880F880FB22DB81BB0A7AF81B885B1
:1015000050968C915097880F880F880F80879496FB
:101510008C919497880F880F880F828BD8968C9126
:10152000880F880F880F848FA981BA818C91880FCA
:10153000880F880F86A3AF81B88552968C915297F9
:10154000880F880F880F818796968C919697880FC1
:10155000880F880F838BDA968C91880F880F880FFD
:10156000858FAB81BC818C91880F880F880F87A3F2
:10157000AF81B88556968C915697880F880F880F43
:1015800083879A968C919A97880F880F880F858BFE
:10159000DE968C91880F880F880F878FAD81BE8172
:1015A0008C91880F880F880F81A78AE582A783A76F
:1015B00024A615A616A617A610AA11AA28960FB635
:1015C000F894DEBF0FBECDBFDF91CF911F910F9179
:1015D000FF90EF90DF90CF90BF90AF909F908F9053
:1015E0007F906F905F904F903F902F9008950F9352
:1015F000705E9B01220F232F221F330B31952F7713
:101600006F77042F462F60EE0E94E6060F91089533
:10161000CF93DF93EC01E881F981309711F0CB96FD
:1016200009958CAD823F09F49EC090F5803C09F489
:1016300086C090F4803909F454C030F4803809F43D
:1016400045C0DF91CF910895803A09F475C0803B81
:10165000C1F7EA85FB853CC0803E09F459C058F4C7
:10166000803D79F7EE85FF85309759F36DAD8BADF1
:10167000DF91CF910994803F09F464C0813F09F75D
:10168000EC89FD893097E9F28DADDF91CF91099416
:101690008A3F91F180F4863F09F477C028F4833FB4
:1016A00081F6E88DF98DEECF883FF1F0893F49F65C
:1016B000E8A1F9A11BC08C3F29F108F18E3F29F167
:1016C0008F3F09F0BECFE8A5F9A510C0EC81FD81E0
:1016D000309709F4B6CF4EAD6DAD8BADDF91CF91A4
:1016E0000994EE81FF81F4CFEC8DFD8D309709F4E4
:1016F000A8CFDF91CF910994EE8DFF8DF7CFEAA1AE
:10170000FBA1F4CFECA1FDA1F1CFEEA1FFA1EECFA3
:10171000E889F989309709F494CF6EAD20E8629F8B
:10172000B001112460787F738DAD8F77682B705274
:101730008BADDF91CF910994E885F985C9CFEC8510
:10174000FD8592CFEA89FB89309709F47ACF6DAD98
:101750007EAD6138710510F060E870E0CE01CF9683
:10176000DF91CF910994EE89FF89309709F469CF11
:101770008EAD20E8829FC001112480789F732DAD2B
:101780002F77822BDF91CF910994EA8DFB8DAECF1D
:10179000EF92FF920F931F93CF93DF93EC019AADDB
:1017A000292F217090FF1EC0892F8E7FD9F0362FF0
:1017B0006CAD80E8860F8136F8F40BAD031719F095
:1017C00021E0311120E09695923051F0933089F06C
:1017D000913041F42EAD4DADCE010E941A0702C0EA
:1017E0002111F8CFDF91CF911F910F91FF90EF90D2
:1017F00008952111F7CFEECFE0E1E60FE03190F749
:10180000F0E0EB5FF34F0C941F4A1F0C630C4A0C83
:10181000380CF20BF20B150CF20B150CF20B150C2D
:10182000150C150CF20B150C150CCE018A96DF91D8
:10183000CF911F910F91FF90EF900C94D8067E01ED
:101840008FE3E80EF11C0DAD1EAD0138110510F04F
:1018500000E810E00E0D1F1DE016F10609F4C2CFDE
:10186000F70161917F018AA59BA50E94CE06F4CF66
:101870001DAD63EF8AA59BA50E94CE06612F6F77F1
:101880008AA59BA5DF91CF911F910F91FF90EF90BB
:101890000C94CE060EADF0E80F9F800111248DADA3
:1018A000082B62EF8AA59BA50E94CE06602F6F775A
:1018B0008AA59BA50E94CE06000F012F001F110BC9
:1018C0001195602FDCCF6DAD80E1689FB0011124D0
:1018D00060771EAD1F70162B61EF8AA59BA50E9435
:1018E000CE06612FCDCF982F9F7E282F2F7C2038BA
:1018F00039F0803E29F081E0903C19F080E00895B5
:1019000081E0089587FF0AC09CE0980F923030F084
:101910008D3F21F0803F18F4807F089580E0089586
:10192000AF92BF92DF92EF92FF920F931F93CF93EC
:10193000DF93DC019C96DC90B0E1BD1560F410E013
:10194000812FDF91CF911F910F91FF90EF90DF904A
:10195000BF90AF900895EC01EAA5FBA5808191812D
:10196000DC01ED91FC910084F185E02D0995892B36
:1019700031F37E01BFECEB0EF11CF70180818E7F0D
:101980008083EAA5FBA580819181DC01ED91FC912A
:101990000284F385E02D0995182F8D3F81F28CA9E3
:1019A0009DA9009709F0A2C01FA70DA5802F0E9436
:1019B000820C0E94730C882341F017FD06C00FA70C
:1019C00018AB81E090E09DAB8CAB1FA5812F0E94EE
:1019D000820C813F09F463C068F5803B39F048F41C
:1019E000803921F0803A11F0803851F423E030E062
:1019F00058C0803D09F453C090F4803C09F44FC0B6
:101A0000F701808181608083EA81FB81309709F052
:101A100009951DAA1CAA1BAA1AAA1DA690CF803E32
:101A200029F3803F69F720E830E03BAB2AAB1DA6E5
:101A30008FAF39C0873FB9F368F5833F81F1B0F2CA
:101A4000863FF1F68CAF1BAE1DAE1EAE81E0FE01EF
:101A5000E154FF4F80831DAA1CAA1BAA1AAA8CADB1
:101A6000803929F48EAD811102C080E88CAF8CAD35
:101A70008058813630F48BADD81619F010E0D110B3
:101A800004C0CE010E94080B11E06D2DCE010E9412
:101A9000C80B56CF8D3FB0F28E3FA0F6B1CF22E0FB
:101AA00030E03BAB2AAB2CA93DA94AA95BA9415028
:101AB000510924173507A8F08CAF1F701F5F1BAFAB
:101AC00088A98DAF1EAE81E090E0FE01E054FF4F8B
:101AD000918380831DAA1CAA1BAA1AAA319780830E
:101AE000BECF2F5F3F4F3DAB2CAB29CF17FF0CC0B4
:101AF0001D3F08F047C0183F08F047C0103F09F4E9
:101B000050C0173F09F44DC02FA5FE01E80FF91F83
:101B1000203F19F0273F09F065C017AFEAA8FBA8DE
:101B20009701215031098217930708F48EC00FA541
:101B3000CE0181549F4F5C01003F19F0073F09F02F
:101B400053C0FE01E254FF4F108180EF80838CAFC1
:101B500080E88DAF1EAE1BAE329680E890E0918398
:101B6000808381E0D5018C93CE010E94080B87EF22
:101B70008FAFFE01E05CFF4F108382E090E09DABF1
:101B80008CABDDCE1E3F08F4BFCF1CAF1DAE1EAE2A
:101B90001BAE81E090E0FE01E054FF4F9183808313
:101BA0009DCF2FAD203F19F0273F09F029CF9C0191
:101BB0002F5F3F4F8C0F9D1FDC01DF961C9380EF42
:101BC0008CAF2DAF3EAF1BAEFE01E054FF4F318313
:101BD000208381E0319780831DAA1CAA1BAA1AAA20
:101BE0001DA63DCF17A79ACF802F0E94820C182FD9
:101BF0008CAF0E94730C8823F9F0802F8F708F5F59
:101C00008BAF88A98DAF80E0B3E0EB16F10409F447
:101C100089A98EAF1DAA1CAA1BAA1AAA81E0F501E8
:101C20008083103B39F050F4103921F0103A11F054
:101C30001038B1F60DA713CF1BAEE3CF103DD1F393
:101C4000103EC1F3103C61F6F5CF019698CF8F920C
:101C50009F92AF92BF92CF92DF92EF92FF921F932B
:101C6000CF93DF931092160182EB9FE00E94154004
:101C700040E060E082EB9FE00E941C406DE871E074
:101C800082EB9FE00E94284538E0832E912CA12C06
:101C9000B12C809116018111B8C082E694E00E94B7
:101CA000900C809121010E941042EC0183E0D595B7
:101CB000C7958A95E1F7809120010E94104280919A
:101CC0001F010E94104280911E010E94104223E0D9
:101CD000959587952A95E1F7182F6C2F669566954F
:101CE000669570E090E080E00E944C4720E030E094
:101CF00040E05FE30E9436460E9414476B017C017E
:101D000081E08C0D80935A0441E060E082EB9FE01B
:101D10000E941C40BE017727072E000C880B990BF0
:101D20000E944C4720E030E040E05FE30E943646EE
:101D30000E941447A50194010E94004AC90101961E
:101D40000E94B506B701A6014F5F5F4F6F4F7F4FEF
:101D50002AE030E082EB9FE00E94834541E06CE0A6
:101D600082EB9FE00E941C40103408F045C06EE9F1
:101D700071E082EB9FE00E94284521E04BE463E59F
:101D800082E694E00E9427070E945D018093B10FD4
:101D9000882319F0833009F07CCF81E0809316010D
:101DA00060E0103408F061E090E080E00E94E44DD3
:101DB00060915A0481E090E00E94E44D0E946941E4
:101DC0006093A90F7093AA0F8093AB0F9093AC0F01
:101DD00082EB9FE00E94154040E060E082EB9FE0D4
:101DE0000E941C4068EA71E082EB9FE00E94284557
:101DF00081E08093A80F4DCF63EA71E082EB9FE012
:101E00000E94284521E041E0BACFDF91CF911F9198
:101E1000FF90EF90DF90CF90BF90AF909F908F900A
:101E20000895CF92DF92EF92FF920F931F93CF937B
:101E3000DF93603409F041C0411137C01092400473
:101E400082E4C82E84E0D82E06E010E082E694E01A
:101E50000E94900CF6018581E8012197811116C03E
:101E600020E0CE018C5A9B4F7C01FC01408160E850
:101E700082E694E00E94E606FE01E85BFB4F1082DA
:101E8000FE01E25BFB4F1082F70110828E01F1E050
:101E9000CF1AD108CD2BD1F6DF91CF911F910F91A1
:101EA000FF90EF90DF90CF90089582E694E00E943B
:101EB000900C81E080934004EFCF613069F721E01E
:101EC000463070F440E06AE482E694E0DF91CF911E
:101ED0001F910F91FF90EF90DF90CF900C94270708
:101EE00046E4F1CF1F93CF93DF9390912501935058
:101EF000923090F4EB0116E0412FBE0182E694E0AF
:101F00000E94F70A82E694E00E94900C1150A1F71B
:101F1000DF91CF911F910895482F82E694E0DF91E1
:101F2000CF911F910C94F70ACF92EF920F9383E019
:101F3000C82E92E0E92E01E020E04CE06DE082EB5B
:101F40009FE00E94D1401092510D1092770F109295
:101F5000780F1092790F80E580939B0F10929C0F61
:101F600081E08093A20F89E28093A40F1092A70FC3
:101F7000E8E2FDE01382128214821582168288EE56
:101F800092E091838083E4E0FDE013821282148268
:101F900015821682918380838BED9FE090933305A9
:101FA00080933205E2E6F4E01182108213821282FD
:101FB0001582148217821682118610861386128665
:101FC0001586148617861686118A108A138A128A35
:101FD000158A148A178A168A118E108E138E128E05
:101FE000158E148E178E168E11A210A213A212A295
:101FF00015A214A217A216A211A610A682E395E0BC
:1020000093A782A714A615A616A613AA12AA15AA04
:1020100014AA8FEF9FEF97AB86AB91AF80AF83E0B1
:1020200080939C0413AE14AE15AE16AE109221052B
:10203000E1EAF4E080E8DF011D928A95E9F7109269
:10204000240510922505109226051092270510925E
:1020500028051092290510922A0510922B0510923E
:102060002C0510922D0510922E0510922F0510921E
:1020700030051092310590E080E00E94DC4D8093A5
:102080005B0481E090E00E94DC4D80935A040F9144
:10209000EF90CF900895EF92FF920F931F93CF93FD
:1020A000DF93CDB7DEB7C455D1090FB6F894DEBFC4
:1020B0000FBECDBF82EB9FE00E94154040E060E084
:1020C00082EB9FE00E941C4069EB71E082EB9FE095
:1020D0000E94284541E060E082EB9FE00E941C40A6
:1020E00063EC71E082EB9FE00E9428450FEC11E069
:1020F0008091140190911501883E934058F540E07D
:1021000064E071E08CE29DE00E94762F882311F15B
:1021100080912C0D827161F78091140190911501CD
:10212000019690931501809314019F938F931F93B1
:102130000F9384E091E09F938F930E94054B8CE274
:102140009DE00E94E32E0F900F900F900F900F9044
:102150000F90CECF41E164E071E08CE29DE00E94FF
:10216000762F811116C082EB9FE00E94154040E05F
:1021700060E082EB9FE00E941C4060EE71E082EB29
:102180009FE00E94284568E873E180E090E00E94AB
:102190009A4181E0809326016091130362956F70EC
:1021A00070E090E080E00E944C4720E030E040E0AA
:1021B0005FE30E9436460E9414477A8369836091E8
:1021C000140362956F7070E090E080E00E944C47CD
:1021D00020E030E040E05FE30E9436460E94144772
:1021E0007C836B836091150366956695669570E0B8
:1021F00090E080E00E944C4720E030E040E05FE368
:102200000E9436460E9414477E836D8360911F03AF
:1022100066956695669570E090E080E00E944C4778
:1022200020E030E040E05FE30E9436460E94144721
:102230007A8F698F6091290366956695669570E03F
:1022400090E080E00E944C4720E030E040E05FE317
:102250000E9436460E9414477EA76DA76091330303
:1022600066956695669570E090E080E00E944C4728
:1022700020E030E040E05FE30E9436460E941447D1
:1022800023967FAF6EAF2397609116036295669594
:10229000677070E090E080E00E944C4720E030E002
:1022A00040E05FE30E9436460E94144778876F83C0
:1022B0006091200362956695677070E090E080E021
:1022C0000E944C4720E030E040E05FE30E94364649
:1022D0000E9414477C8F6B8F60912A0362956695EC
:1022E000677070E090E080E00E944C4720E030E0B2
:1022F00040E05FE30E9436460E94144778AB6FA728
:102300006091340362956695677070E090E080E0BC
:102310000E944C4720E030E040E05FE30E943646F8
:102320000E94144725967FAF6EAF259780911703C3
:102330000FE710E0F801E81BF109FA87E9878091BF
:1023400021039801281B31093E8F2D8F80912B038B
:10235000F801E81BF109FAABE9AB8091350398016C
:10236000281B310927963FAF2EAF2797609118039E
:1023700062956695677070E090E080E00E944C473F
:1023800020E030E040E05FE30E9436460E941447C0
:102390007C876B876091220362956695677070E019
:1023A00090E080E00E944C4720E030E040E05FE3B6
:1023B0000E9436460E94144778A36F8F60912C03C9
:1023C00062956695677070E090E080E00E944C47EF
:1023D00020E030E040E05FE30E9436460E94144770
:1023E0007CAB6BAB6091360362956695677070E06D
:1023F00090E080E00E944C4720E030E040E05FE366
:102400000E9436460E94144729967FAF6EAF2997E7
:10241000609119036695669570E090E080E00E94F7
:102420004C4720E030E040E05FE30E9436460E94E7
:1024300014477E876D87609123036695669570E0EB
:1024400090E080E00E944C4720E030E040E05FE315
:102450000E9436460E9414477AA369A360912D0317
:102460006695669570E090E080E00E944C4720E021
:1024700030E040E05FE30E9436460E9414477EABA6
:102480006DAB609137036695669570E090E080E0F3
:102490000E944C4720E030E040E05FE30E94364677
:1024A0000E9414472B967FAF6EAF2B9760911A0353
:1024B0006695669570E090E080E00E944C4720E0D1
:1024C00030E040E05FE30E9436460E941447788B7C
:1024D0006F87609124036695669570E090E080E0D8
:1024E0000E944C4720E030E040E05FE30E94364627
:1024F0000E9414477CA36BA360912E03669566959A
:1025000070E090E080E00E944C4720E030E040E046
:102510005FE30E9436460E94144778AF6FAB60912C
:1025200038036695669570E090E080E00E944C4725
:1025300020E030E040E05FE30E9436460E9414470E
:102540002D967FAF6EAF2D9780911D03081B11094B
:1025500017FF02C0095F1F4F33E0159507953A95A5
:10256000E1F7B801012E000C880B990B0E944C4733
:1025700020E030E040E05FE317FD1BC20E943646DA
:102580000E9414477E8B6D8B209127038FE790E08C
:10259000821B910997FD07968C0123E015950795FD
:1025A0002A95E1F7B801012E000C880B990B0E94C7
:1025B0004C4720E030E040E05FE317FDFDC10E94A2
:1025C00036460E9414477AA769A7209131038FE706
:1025D00090E0821B910997FD07968C0193E0159579
:1025E00007959A95E1F7B801012E000C880B990B1D
:1025F0000E944C4720E030E040E05FE317FDDFC180
:102600000E9436460E9414477EAF6DAF20913B0377
:102610008FE790E0821B910997FD07968C0183E07C
:10262000159507958A95E1F7B801012E000C880BE6
:10263000990B0E944C4720E030E040E05FE317FD3B
:10264000C1C10E9436460E94144763967FAF6EAFA9
:10265000639760911B0366956695669570E090E0C0
:1026600080E00E944C4720E030E040E05FE30E94C1
:1026700036460E9414477A8B698B609125036695D4
:102680006695669570E090E080E00E944C4720E0FF
:1026900030E040E05FE30E9436460E9414477EA38C
:1026A0006DA360912F0366956695669570E090E046
:1026B00080E00E944C4720E030E040E05FE30E9471
:1026C00036460E9414477AAF69AF60913903669528
:1026D0006695669570E090E080E00E944C4720E0AF
:1026E00030E040E05FE30E9436460E9414472F9698
:1026F0007FAF6EAF2F9760911C03669566956695C8
:1027000070E090E080E00E944C4720E030E040E044
:102710005FE30E9436460E9414477C8B6B8B60916E
:10272000260366956695669570E090E080E00E94CD
:102730004C4720E030E040E05FE30E9436460E94D4
:10274000144778A76FA360913003669566956695E8
:1027500070E090E080E00E944C4720E030E040E0F4
:102760005FE30E9436460E9414477CAF6BAF6091D6
:102770003A0366956695669570E090E080E00E9469
:102780004C4720E030E040E05FE30E9436460E9484
:10279000144761967FAF6EAF619760911E03669597
:1027A0006695669570E090E080E00E944C4720E0DE
:1027B00030E040E05FE30E9436460E941447788F85
:1027C0006F8B6091280366956695669570E090E042
:1027D00080E00E944C4720E030E040E05FE30E9450
:1027E00036460E9414477CA76BA76091320366951A
:1027F0006695669570E090E080E00E944C4720E08E
:1028000030E040E05FE30E9436460E941447219684
:102810007FAF6EAF219760913C0366956695669594
:1028200070E090E080E00E944C4720E030E040E023
:102830005FE30E9436460E94144765967FAF6EAFF5
:1028400065978E010F5F1F4F7E0135E5E30EF11C8A
:10285000F80160810E5F1F4F88E29DE00E944B01EE
:10286000E016F106A9F78CE29DE00E94E32E82EBD0
:102870009FE00E94154040E060E082EB9FE00E94F4
:102880001C4066E871E082EB9FE00E94284541E031
:1028900060E082EB9FE00E941C4064E071E082EB0C
:1028A0009FE00E94284560ED77E080E090E00E9484
:1028B0009A410E9469416093A90F7093AA0F809377
:1028C000AB0F9093AC0F81E08093A80F88E09DE060
:1028D0000E94E32E81E00E941B0282EB9FE00E9497
:1028E000154040E060E082EB9FE00E941C4062E007
:1028F00082EB9FE00E94194162E972E082EB9FE067
:102900000E94284562E972E082EB9FE00E94284520
:1029100061E082EB9FE00E941941E0912601F0E026
:10292000E55AFB4F8081082E000C990B01960E94FE
:102930009C06E0912601F0E0E55AFB4F6081062EEF
:10294000000C770B6F5F7F4F4AE050E082EB9FE017
:102950000E94CB4568E671E082EB9FE00E9428452B
:102960008091020D9091030D0E949C066091020DD2
:102970007091030D4AE050E082EB9FE00E94E64533
:1029800041E060E082EB9FE00E941C4064E071E067
:1029900082EB9FE0CC5ADF4F0FB6F894DEBF0FBE3C
:1029A000CDBFDF91CF911F910F91FF90EF900C94CD
:1029B00028450E943546E4CD0E94354602CE0E944D
:1029C000354620CE0E9435463ECECF93109216015A
:1029D00082EB9FE00E94154040E060E082EB9FE0C8
:1029E0000E941C4060EF71E082EB9FE00E9428454E
:1029F00041E060E082EB9FE00E941C406EEF71E0DE
:102A000082EB9FE00E942845C1E080911601811170
:102A10003AC082E694E00E94900C0E945D0180938F
:102A2000B10F823059F148F4882349F0813069F7B9
:102A3000809316010E94A802E8CF853030F7C0933A
:102A400016010E9469416093A90F7093AA0F8093A9
:102A5000AB0F9093AC0F82EB9FE00E94154040E0DB
:102A600060E082EB9FE00E941C406DE072E082EB30
:102A70009FE00E942845C093A80FC7CFC0931601BE
:102A80000E944B10C2CFCF910895EF92FF920F9307
:102A90001F93CF93DF93CDB7DEB7C656D1090FB6DC
:102AA000F894DEBF0FBECDBFE0912601F0E0E55AFD
:102AB000FB4FE081EE0FFF0BEC5CFA4F4081518140
:102AC00020E068E07DE08CE29DE00E947F2F811194
:102AD00010C082EB9FE00E94154040E060E082EB76
:102AE0009FE00E941C406CE172E082EB9FE00E943C
:102AF00028458E010F5F1F4F780180912C0D83FFB9
:102B000034C08091440D9091450DA091460DB09137
:102B1000470D40913C0D50913D0D60913E0D7091DF
:102B20003F0D841B950BA60BB70B811520E8920770
:102B3000A105B10520F08FEF9FE7A0E0B0E0892B61
:102B4000D9F041E050E0BE016B5A7F4F8CE29DE02E
:102B50000E94922A019769F466968FAD669790E07D
:102B6000F801819391938F01C8CF80E090E0DC0160
:102B7000DCCF8FEF9FEFF4CF6091260170E0C701AB
:102B80000E94300741E150E0BE016B5A7F4F8CE25A
:102B90009DE00E945032A7961FAEA79782EB9FE060
:102BA0000E94154040E060E082EB9FE00E941C40E4
:102BB00080912501833009F068C062E082EB9FE0DC
:102BC0000E94194162E972E082EB9FE00E94284571
:102BD00062E972E082EB9FE00E94284561E082EBAF
:102BE0009FE00E941941E0912601F0E0E55AFB4F79
:102BF0008081082E000C990B01960E949C06E091A2
:102C00002601F0E0E55AFB4F6081062E000C770BA1
:102C10006F5F7F4F4AE050E082EB9FE00E94CB4520
:102C200068E671E082EB9FE00E9428458091020DEA
:102C30009091030D0E949C066091020D7091030D0E
:102C40004AE050E082EB9FE00E94E64541E060E010
:102C500082EB9FE00E941C40BE016B5A7F4F82EBCB
:102C60009FE00E9428458CE29DE00E94E32ECA5915
:102C7000DF4F0FB6F894DEBF0FBECDBFDF91CF910F
:102C80001F910F91FF90EF90089560E082EB9FE01D
:102C90000E9419414AE050E06091260182EB9FE0DA
:102CA0000E94DF4595CF0F931F93CF93DF93CDB74E
:102CB000DEB728970FB6F894DEBF0FBECDBF60E039
:102CC000809121010E94664260E0809120010E9473
:102CD000664260E080911F010E94664260E0809140
:102CE0001E010E94664262E080911D010E946642C0
:102CF00062E080911C010E94664262E080911B01AB
:102D00000E94664262E080911A010E94664262E07F
:102D1000809119010E94664262E0809118010E9430
:102D2000664262E0809117010E9466428091210113
:102D30000E94104223E0959587952A95E1F78093AC
:102D40000F03809120010E94104233E095958795F2
:102D50003A95E1F78093100380911F010E94104281
:102D600043E0959587954A95E1F78093110380910B
:102D70001E010E94104253E0959587955A95E1F700
:102D80008093120320E042E060E182EB9FE00E942A
:102D900035404FE551E060E082EB9FE00E94F1405A
:102DA00047E551E061E082EB9FE00E94F1404FE493
:102DB00051E062E082EB9FE00E94F14047E451E085
:102DC00063E082EB9FE00E94F1404FE351E064E05A
:102DD00082EB9FE00E94F14047E351E065E082EB27
:102DE0009FE00E94F1404FE251E066E082EB9FE0FD
:102DF0000E94F14047E251E067E082EB9FE00E94D1
:102E0000F14082EB9FE00E94154040E060E082EBE1
:102E10009FE00E941C406DE272E082EB9FE00E9406
:102E2000284541E060E082EB9FE00E941C406CE39B
:102E300072E082EB9FE00E94284568EE73E080E03C
:102E400090E00E949A4184E089831A8280E8282FCA
:102E50008B8380EF8C838AEF8D8382E08E8318864C
:102E60001F8204E010E030EF4AEF52E060E0788526
:102E700089E99FE00E94913C89E99FE09093980F37
:102E80008093970F8091A40F8111A1C041E069E95F
:102E90007FE08CE49DE00E94D139882309F497C03B
:102EA00087E79FE00E94E32E6CE47DE087E79FE0E8
:102EB0000E94782A882309F48AC08CE49DE09093CC
:102EC000CF0F8093CE0FE0918C04F0918D0426E01B
:102ED00042E15AE760E070E0808191810E94D9432D
:102EE00010928E041092900410928F041092970406
:102EF0001092960410929504109294048FEF9FEF15
:102F0000909399048093980490939B0480939A04DF
:102F10000E946941609324057093250580932605DE
:102F2000909327051092210510929E0410929D0403
:102F300010929F041092A004109223051092220573
:102F400010929C048EE797E2909369048093680442
:102F50008BEB98E2909367048093660481E19FE095
:102F600090936D0480936C0482E79FE090937304C8
:102F70008093720480915B048F3F11F410925B0484
:102F800080915A048F3F19F481E080935A04809114
:102F90005B0421E04BE4811141E063E582E694E0CB
:102FA0000E94270780E00E941B0216E01093260172
:102FB0000E9445151150D1F728960FB6F894DEBF40
:102FC0000FBECDBFDF91CF911F910F91089582EB7E
:102FD0009FE00E94154040E060E082EB9FE00E948D
:102FE0001C4069E472E082EB9FE00E94284568E89B
:102FF00073E180E090E00E949A4165CF0F931F93A8
:10300000CF93DF93CDB7DEB762970FB6F894DEBFEC
:103010000FBECDBF1092160182EB9FE00E941540BB
:1030200040E060E082EB9FE00E941C4068E572E0B7
:1030300082EB9FE00E94284541E060E082EB9FE048
:103040000E941C4067E672E082EB9FE00E942845E8
:1030500068EE73E080E090E00E949A4101E0809188
:1030600016018111CCC082E694E00E94900C0E946F
:103070005D01182F8093B10F853018F5833010F45F
:103080008111EDCF009316010E9469416093A90F51
:103090007093AA0F8093AB0F9093AC0F82EB9FE0DD
:1030A0000E94154040E060E082EB9FE00E941C40DF
:1030B00062E172E082EB9FE00E9428450093A80F36
:1030C000CECF863061F600931601E0912601F0E044
:1030D000E55AFB4FE081EE0FFF0BEC5CFA4F4081AD
:1030E000518121E068E07DE08CE29DE00E947F2F2D
:1030F000811110C082EB9FE00E94154040E060E02B
:1031000082EB9FE00E941C4066E771E082EB9FE04B
:103110000E94284541E150E0BE016F5F7F4F8CE285
:103120009DE00E9450321A8A8CE29DE00E94443455
:10313000811110C082EB9FE00E94154040E060E0EA
:1031400082EB9FE00E941C4066E772E082EB9FE00A
:103150000E94284582EB9FE00E94154040E060E01D
:1031600082EB9FE00E941C4063E872E082EB9FE0EC
:103170000E94284541E060E082EB9FE00E941C40F5
:10318000BE016F5F7F4F82EB9FE00E94284560EA9F
:103190007FE080E090E00E949A410E946941609344
:1031A000A90F7093AA0F8093AB0F9093AC0F00936D
:1031B000A80F88E09DE00E94E32E80E00E941B02A1
:1031C00080915C04815080935C0487FF05C08091EE
:1031D000020D815080935C0480915C0480935D04B7
:1031E00080935E0480935F04809360048093610405
:1031F000109326010E9445151150D1F730CF6296E9
:103200000FB6F894DEBF0FBECDBFDF91CF911F91F7
:103210000F910895CF93DF93CDB7DEB762970FB6C6
:10322000F894DEBF0FBECDBFE0912601F0E0E55A75
:10323000FB4FE081EE0FFF0BEC5CFA4F40815181B8
:1032400020E068E07DE08CE29DE00E947F2F81110C
:1032500012C040E060E082EB9FE00E941C4066E705
:1032600071E082EB9FE00E94284568E873E180E00E
:1032700090E00E949A4141E150E0BE016F5F7F4FB4
:103280008CE29DE00E9450321A8A82EB9FE00E94FD
:10329000154040E060E082EB9FE00E941C4080917E
:1032A0002501833009F063C062E082EB9FE00E9459
:1032B000194162E972E082EB9FE00E94284562E9D1
:1032C00072E082EB9FE00E94284561E082EB9FE084
:1032D0000E941941E0912601F0E0E55AFB4F808100
:1032E000082E000C990B01960E949C06E091260185
:1032F000F0E0E55AFB4F6081062E000C770B6F5F04
:103300007F4F4AE050E082EB9FE00E94CB4568E6A9
:1033100071E082EB9FE00E9428458091020D909120
:10332000030D0E949C066091020D7091030D4AE00E
:1033300050E082EB9FE00E94E64541E060E082EBD6
:103340009FE00E941C40BE016F5F7F4F82EB9FE0B9
:103350000E9428458CE29DE00E94E32E62960FB603
:10336000F894DEBF0FBECDBFDF91CF91089560E02E
:1033700082EB9FE00E9419414AE050E060912601F3
:1033800082EB9FE00E94DF459ACFCF93DF9382EBE1
:103390009FE00E94154040E060E082EB9FE00E94C9
:1033A0001C4080912501823059F560E082EB9FE05E
:1033B0000E9419414AE050E06091260182EB9FE0B3
:1033C0000E94DF4562EB71E082EB9FE00E940445C2
:1033D000E0912401E150ED3008F0C6C0F0E0ED507E
:1033E000F64E0C941F4A081AB71A341BA51B161C5C
:1033F000871CF81C691DDA1D4B1EBC1E2D1FA31F48
:1034000062E082EB9FE00E9419416FEA71E0DCCF3D
:1034100061EA71E082EB9FE00E9404458091220105
:1034200041E061E0813408F47DC082EB9FE00E94BE
:103430001C4065E082EB9FE00E94194166E082EB50
:103440009FE00E94194163E082EB9FE00E941941D6
:1034500041E065E082EB9FE00E941C4080912601E4
:103460008150990BD2E3D89FF001D99FF00D112420
:10347000ED5EFC4FC08161E972E082EB9FE00E944B
:103480002845C295CF706C2F70E090E080E00E94DC
:103490004C4720E030E040E05FE30E9436460E9467
:1034A0001447AB01BC012AE030E082EB9FE00E94B0
:1034B000834541E069E082EB9FE00E941C408091DF
:1034C00026018150990BD89FF001D99FF00D11244E
:1034D000ED5EFC4FC1818C2F90E00E94B5064AE062
:1034E00050E06C2F82EB9FE00E94DF4541E06DE0F1
:1034F00082EB9FE00E941C40809126018150990B35
:10350000D89FF001D99FF00D1124ED5EFC4F84A5EA
:103510008032C0F464E972E082EB9FE0DF91CF91EA
:103520000C94284582EB9FE00E941C4065E082EBF2
:103530009FE00E94194166E082EB9FE00E941941E2
:1035400064E082CF90EE980F903218F468E972E050
:10355000E3CF90EC980F6CE972E09032E8F280567D
:1035600060EA72E08032C0F2DF91CF91089564E9A1
:1035700071E082EB9FE00E94044541E061E082EB54
:103580009FE00E941C40809126018150990BC2E36C
:10359000C89FF001C99FF00D1124ED5EFC4FD4814E
:1035A0008D2F90E00E94B5064AE050E06D2F82EB2F
:1035B0009FE00E94DF4541E065E082EB9FE00E94D2
:1035C0001C40809126018150990BC89FF001C99F32
:1035D000F00D1124ED5EFC4FD08D8D2F90E00E94F8
:1035E000B5064AE050E06D2F82EB9FE00E94DF4578
:1035F00041E069E082EB9FE00E941C40809126013F
:103600008150990BC89FF001C99FF00D1124ED5E08
:10361000FC4FD6858D2F90E00E94B5064AE050E021
:103620006D2F82EB9FE00E94DF4541E06DE082EB71
:103630009FE00E941C40809126018150990BC89FF9
:10364000F001C99FF00D1124ED5EFC4FC2A18C2F3B
:1036500090E00E94B5064AE050E06C2F82EB9FE0BC
:10366000DF91CF910C94DF4566E871E082EB9FE03B
:103670000E94044541E061E082EB9FE00E941C4013
:10368000809126018150990BC2E3C89FF001C99F28
:10369000F00D1124ED5EFC4FD2818D2F90E00E9441
:1036A000B5064AE050E06D2F82EB9FE00E94DF45B7
:1036B00041E065E082EB9FE00E941C408091260182
:1036C0008150990BC89FF001C99FF00D1124ED5E48
:1036D000FC4FD6898D2F90E00E94B5064AE050E05D
:1036E0006D2F82EB9FE00E94DF4541E069E082EBB5
:1036F0009FE00E941C40809126018150990BC89F39
:10370000F001C99FF00D1124ED5EFC4FD4858D2F83
:1037100090E00E94B5064AE050E06D2F82EB9FE0FA
:103720000E94DF4541E06DE082EB9FE00E941C407B
:10373000809126018150990BC89FF001C99FF00D1F
:103740001124ED5EFC4FC0A182CF68E771E082EBEF
:103750009FE00E94044541E061E082EB9FE00E940F
:103760001C40809126018150990BC2E3C89FF00153
:10377000C99FF00D1124ED5EFC4FD3818D2F90E099
:103780000E94B5064AE050E06D2F82EB9FE00E9458
:10379000DF4541E065E082EB9FE00E941C408091A4
:1037A00026018150990BC89FF001C99FF00D11248B
:1037B000ED5EFC4FD7898D2F90E00E94B5064AE060
:1037C00050E06D2F82EB9FE00E94DF4541E069E011
:1037D00082EB9FE00E941C40809126018150990B52
:1037E000C89FF001C99FF00D1124ED5EFC4FD585F7
:1037F0008D2F90E00E94B5064AE050E06D2F82EBDD
:103800009FE00E94DF4541E06DE082EB9FE00E9477
:103810001C40809126018150990BC89FF001C99FDF
:10382000F00D1124ED5EFC4FC1A111CF6AE671E0ED
:1038300082EB9FE00E94044541E061E082EB9FE063
:103840000E941C40809126018150990BC2E3C89FC1
:10385000F001C99FF00D1124ED5EFC4FD5818D2F35
:1038600090E00E94B5064AE050E06D2F82EB9FE0A9
:103870000E94DF4541E065E082EB9FE00E941C4032
:10388000809126018150990BC89FF001C99FF00DCE
:103890001124ED5EFC4FD18D8D2F90E00E94B50676
:1038A0004AE050E06D2F82EB9FE00E94DF4541E04F
:1038B00069E082EB9FE00E941C40809126018150CC
:1038C000990BC89FF001C99FF00D1124ED5EFC4FCC
:1038D000D7858D2F90E00E94B5064AE050E06D2F0D
:1038E00082EB9FE00E94DF4541E06DE082EB9FE0CC
:1038F0000E941C40809126018150990BC89FF001C5
:10390000C99FF00D1124ED5EFC4FC3A1A0CE60E66F
:1039100071E082EB9FE00E94044541E061E082EBB0
:103920009FE00E941C40809126018150990BC2E3C8
:10393000C89FF001C99FF00D1124ED5EFC4FD681A8
:103940008D2F90E00E94B5064AE050E06D2F82EB8B
:103950009FE00E94DF4541E065E082EB9FE00E942E
:103960001C40809126018150990BC89FF001C99F8E
:10397000F00D1124ED5EFC4FD28D8D2F90E00E9452
:10398000B5064AE050E06D2F82EB9FE00E94DF45D4
:1039900041E069E082EB9FE00E941C40809126019B
:1039A0008150990BC89FF001C99FF00D1124ED5E65
:1039B000FC4FD0898D2F90E00E94B5064AE050E080
:1039C0006D2F82EB9FE00E94DF4541E06DE082EBCE
:1039D0009FE00E941C40809126018150990BC89F56
:1039E000F001C99FF00D1124ED5EFC4FC4A12FCE54
:1039F00065E571E082EB9FE00E94044541E061E0F3
:103A000082EB9FE00E941C40809126018150990B1F
:103A1000C2E3C89FF001C99FF00D1124ED5EFC4F79
:103A2000D7818D2F90E00E94B5064AE050E06D2FBF
:103A300082EB9FE00E94DF4541E065E082EB9FE082
:103A40000E941C40809126018150990BC89FF00173
:103A5000C99FF00D1124ED5EFC4FD38D8D2F90E0AA
:103A60000E94B5064AE050E06D2F82EB9FE00E9475
:103A7000DF4541E069E082EB9FE00E941C408091BD
:103A800026018150990BC89FF001C99FF00D1124A8
:103A9000ED5EFC4FD1898D2F90E00E94B5064AE083
:103AA00050E06D2F82EB9FE00E94DF4541E06DE02A
:103AB00082EB9FE00E941C40809126018150990B6F
:103AC000C89FF001C99FF00D1124ED5EFC4FC5A108
:103AD000BECD6AE471E082EB9FE00E94044541E0C4
:103AE00061E082EB9FE00E941C40809126018150A2
:103AF000990BC2E3C89FF001C99FF00D1124ED5E40
:103B0000FC4FD2858D2F90E00E94B5064AE050E030
:103B10006D2F82EB9FE00E94DF4541E065E082EB84
:103B20009FE00E941C40809126018150990BC89F04
:103B3000F001C99FF00D1124ED5EFC4FD68D8D2F45
:103B400090E00E94B5064AE050E06D2F82EB9FE0C6
:103B50000E94DF4541E069E082EB9FE00E941C404B
:103B6000809126018150990BC89FF001C99FF00DEB
:103B70001124ED5EFC4FD4898D2F90E00E94B50694
:103B80004AE050E06D2F82EB9FE00E94DF4541E06C
:103B90006DE082EB9FE00E941C40809126018150E5
:103BA000990BC89FF001C99FF00D1124ED5EFC4FE9
:103BB000C0A54DCD6FE371E082EB9FE00E9404450C
:103BC00041E061E082EB9FE00E941C408091260171
:103BD0008150990BC2E3C89FF001C99FF00D1124D9
:103BE000ED5EFC4FD0858D2F90E00E94B5064AE037
:103BF00050E06D2F82EB9FE00E94DF4541E065E0E1
:103C000082EB9FE00E941C40809126018150990B1D
:103C1000C89FF001C99FF00D1124ED5EFC4FD48DBB
:103C20008D2F90E00E94B5064AE050E06D2F82EBA8
:103C30009FE00E94DF4541E069E082EB9FE00E9447
:103C40001C40809126018150990BC89FF001C99FAB
:103C5000F00D1124ED5EFC4FD2898D2F90E00E9473
:103C6000B5064AE050E06D2F82EB9FE00E94DF45F1
:103C700041E06DE082EB9FE00E941C4080912601B4
:103C80008150990BC89FF001C99FF00D1124ED5E82
:103C9000FC4FC6A1DCCC64E371E082EB9FE00E94A4
:103CA000044541E061E082EB9FE00E941C4080916E
:103CB00026018150990BC2E3C89FF001C99FF00D06
:103CC0001124ED5EFC4FD1858D2F90E00E94B5064A
:103CD0004AE050E06D2F82EB9FE00E94DF4541E01B
:103CE00065E082EB9FE00E941C408091260181509C
:103CF000990BC89FF001C99FF00D1124ED5EFC4F98
:103D0000D58D8D2F90E00E94B5064AE050E06D2FD2
:103D100082EB9FE00E94DF4541E069E082EB9FE09B
:103D20000E941C40809126018150990BC89FF00190
:103D3000C99FF00D1124ED5EFC4FD3898D2F90E0CB
:103D40000E94B5064AE050E06D2F82EB9FE00E9492
:103D5000DF4541E06DE082EB9FE00E941C408091D6
:103D600026018150990BC89FF001C99FF00D1124C5
:103D7000ED5EFC4FC7A16BCC6AE271E082EB9FE085
:103D80000E94044541E061E082EB9FE00E941C40FC
:103D9000809126018150990BC2E3C89FF001C99F11
:103DA000F00D1124ED5EFC4FD3858D2F90E00E9425
:103DB000B5064AE050E06D2F82EB9FE00E94DF45A0
:103DC00041E065E082EB9FE00E941C40809126016B
:103DD0008150990BC89FF001C99FF00D1124ED5E31
:103DE000FC4FD78D8D2F90E00E94B5064AE050E041
:103DF0006D2F82EB9FE00E94DF4541E069E082EB9E
:103E00009FE00E941C40809126018150990BC89F21
:103E1000F001C99FF00D1124ED5EFC4FD5898D2F67
:103E200090E00E94B5064AE050E06D2F82EB9FE0E3
:103E30000E94DF4541E06DE082EB9FE00E941C4064
:103E4000809126018150990BC89FF001C99FF00D08
:103E50001124ED5EFC4FC1A5FACB6FE171E082EB5E
:103E60009FE00E94044541E061E082EB9FE00E94F8
:103E70001C40809126018150990B22E3289FF0017C
:103E8000299FF00D1124ED5EFC4F85A564E972E0D9
:103E9000803410F064EA72E082EB9FE00E942845D3
:103EA00041E065E082EB9FE00E941C40809126018A
:103EB0008150990B22E3289FF001299FF00D1124D6
:103EC000ED5EFC4F87A564E972E0803410F064EA8F
:103ED00072E082EB9FE00E94284541E069E082EBBE
:103EE0009FE00E941C40809126018150990B22E3A3
:103EF000289FF001299FF00D1124ED5EFC4F86A54F
:103F000064E972E0803410F064EA72E082EB9FE0D2
:103F10000E94284541E06DE082EB9FE00E941C403A
:103F2000809126018150990B22E3289FF001299F5F
:103F3000F00D1124ED5EFC4F80A964EA72E080343C
:103F400008F0EACAE7CA62E171E082EB9FE00E94F2
:103F5000044541E065E082EB9FE00E941C40C09177
:103F600023018C2F90E00E94B5064AE050E06C2FB0
:103F700082EB9FE00E94DF4541E069E082EB9FE039
:103F80000E941C40809126018150990BC2E3C89F7A
:103F9000F001C99FF00D1124ED5EFC4FD2A58D2FCD
:103FA00090E00E94B5064AE050E06D2F82EB9FE062
:103FB0000E94DF4541E06DE082EB9FE00E941C40E3
:103FC000809126018150990BC89FF001C99FF00D87
:103FD0001124ED5EFC4FC3A53ACBCF93DF93209124
:103FE00025012130D1F48130910581F482E0809364
:103FF0002501C1E0D0912501D23009F49CC070F5B3
:10400000D13009F475C0DF91CF910895029719F46A
:1040100083E080932501C0E0EDCF223049F4813068
:10402000910511F481E0E3CF0297A9F784E0F1CF85
:10403000233049F48130910511F484E0D8CF029700
:1040400051F781E0E6CF243031F78130910511F44A
:1040500083E0CDCF0297F9F682E0DBCFD33009F4CD
:10406000BAC0D43081F6809121010E94104223E031
:10407000959587952A95E1F780930F03809120010C
:104080000E94104233E0959587953A95E1F7809329
:10409000100380911F010E94104243E0959587957F
:1040A0004A95E1F78093110380911E010E9410420E
:1040B00053E0959587955A95E1F7809312030E94F6
:1040C00069416093A90F7093AA0F8093AB0F9093EF
:1040D000AC0F82EB9FE00E941540C11178C040E018
:1040E00060E082EB9FE00E941C4063ED72E067C0DD
:1040F0000E9469416093A90F7093AA0F8093AB0F40
:104100009093AC0F82EB9FE00E941540C1110FC04D
:1041100040E060E082EB9FE00E941C4068EA72E0B1
:1041200082EB9FE00E942845D093A80F6CCFDF91CF
:10413000CF910C940A19809121010E94104263E0F2
:10414000959587956A95E1F780930F0380912001FB
:104150000E94104273E0959587957A95E1F78093D8
:10416000100380911F010E941042E3E0959587950E
:10417000EA95E1F78093110380911E010E9410429D
:10418000F3E095958795FA95E1F7809312030E94E5
:1041900069416093A90F7093AA0F8093AB0F90931E
:1041A000AC0F82EB9FE00E941540C11110C040E0AF
:1041B00060E082EB9FE00E941C4066EB72E082EBC5
:1041C0009FE00E94284581E08093A80F1CCFDF91DB
:1041D000CF910C94C5190E9469416093A90F709307
:1041E000AA0F8093AB0F9093AC0F82EB9FE00E94DD
:1041F0001540C1119CCF40E060E082EB9FE00E943F
:104200001C4065EC72E0DBCF0F931F930E94694165
:104210000091A90F1091AA0F2091AB0F3091AC0F14
:10422000601B710B820B930B6D3B724081059105F6
:1042300058F08091A80F813039F4809125018230A7
:1042400051F028F4813051F01F910F91089583307F
:1042500029F08430C9F70E94C51902C00E940A19CA
:104260001092A80FF1CFCF93DF93E0912401E1509A
:10427000ED3088F5C62FD82FF0E0EF5BFE4D0C94A3
:104280001F4A4E21D1211E226B22B8220523522320
:104290009F23F0233D248A24D724242541E061E094
:1042A00082EB9FE00E941C408091220165E08134F6
:1042B000A8F082EB9FE00E94194166E082EB9FE04C
:1042C0000E94194163E082EB9FE00E941941D111E5
:1042D00029C0C0932201DF91CF91089582EB9FE026
:1042E0000E94194166E082EB9FE00E94194164E060
:1042F00082EB9FE00E94194120912601422F4150FC
:10430000550B32E3349FF001359FF00D1124ED5E23
:10431000FC4F8FE784A74FE76DE482E694E00E94AC
:104320002707D5CFD130B1F420912601622F6150FB
:10433000770B32E3369FF001379FF00D1124ED5ECD
:10434000FC4FC0834C2F6EE082E694E0DF91CF916A
:104350000C942707D23089F420912601422F415036
:10436000550B32E3349FF001359FF00D1124ED5EC3
:10437000FC4FC1834C2F6FE0E7CFD33009F0ABCFB8
:1043800020912601622F6150770B32E3369FF001B6
:10439000379FF00D1124ED5EFC4FC4A74C2F6DE448
:1043A000D3CF811111C020912601422F4150550BCE
:1043B00032E3349FF001359FF00D1124ED5EFC4F88
:1043C0006483462F60E1C0CF813089F420912601BB
:1043D000622F6150770B32E3369FF001379FF00D6B
:1043E0001124ED5EFC4FC08F4C2F62E1ADCF8230C7
:1043F00089F420912601422F4150550B32E3349F1E
:10440000F001359FF00D1124ED5EFC4F6687462FBD
:1044100061E19ACF833009F05ECF20912601622FAF
:104420006150770B32E3369FF001379FF00D112476
:10443000ED5EFC4FC2A34C2F63E186CF811111C00A
:1044400020912601422F4150550B32E3349FF00159
:10445000359FF00D1124ED5EFC4F6283462F64E121
:1044600073CF813089F420912601622F6150770B40
:1044700032E3369FF001379FF00D1124ED5EFC4FC3
:10448000C68B4C2F66E160CF823089F420912601E3
:10449000422F4150550B32E3349FF001359FF00D10
:1044A0001124ED5EFC4F6487462F65E14DCF8330CC
:1044B00009F011CF20912601622F6150770B32E372
:1044C000369FF001379FF00D1124ED5EFC4FC0A325
:1044D0004C2F67E139CF811111C020912601422F65
:1044E0004150550B32E3349FF001359FF00D1124FC
:1044F000ED5EFC4F6383462F68E126CF813089F45F
:1045000020912601622F6150770B32E3369FF00134
:10451000379FF00D1124ED5EFC4FC78B4C2F6AE1E5
:1045200013CF823089F420912601422F4150550B40
:1045300032E3349FF001359FF00D1124ED5EFC4F06
:104540006587462F69E100CF833009F0C4CE209102
:104550002601622F6150770B32E3369FF001379FBF
:10456000F00D1124ED5EFC4FC1A34C2F6BE1ECCE9E
:10457000811111C020912601422F4150550B32E389
:10458000349FF001359FF00D1124ED5EFC4F6583E3
:10459000462F67E2D9CE813089F420912601622F1F
:1045A0006150770B32E3369FF001379FF00D1124F5
:1045B000ED5EFC4FC18F4C2F69E2C6CE823089F48C
:1045C00020912601422F4150550B32E3349FF001D8
:1045D000359FF00D1124ED5EFC4F6787462F68E292
:1045E000B3CE833009F077CE20912601622F61503F
:1045F000770B32E3369FF001379FF00D1124ED5E0B
:10460000FC4FC3A34C2F6AE29FCE811111C02091B1
:104610002601422F4150550B32E3349FF001359F64
:10462000F00D1124ED5EFC4F6683462F6BE28CCEBD
:10463000813089F420912601622F6150770B32E39B
:10464000369FF001379FF00D1124ED5EFC4FC28FB5
:104650004C2F6DE279CE823089F420912601422FD1
:104660004150550B32E3349FF001359FF00D11247A
:10467000ED5EFC4F608B462F6CE266CE833009F016
:104680002ACE20912601622F6150770B32E3369FAC
:10469000F001379FF00D1124ED5EFC4FC4A34C2FA9
:1046A0006EE252CE811111C020912601422F41505D
:1046B000550B32E3349FF001359FF00D1124ED5E70
:1046C000FC4F6783462F6FE23FCE813089F4209103
:1046D0002601622F6150770B32E3369FF001379F3E
:1046E000F00D1124ED5EFC4FC38F4C2F61E32CCEF7
:1046F000823089F420912601422F4150550B32E33C
:10470000349FF001359FF00D1124ED5EFC4F618B5D
:10471000462F60E319CE833009F0DDCD20912601CC
:10472000622F6150770B32E3369FF001379FF00D17
:104730001124ED5EFC4FC5A34C2F62E305CE811121
:1047400012C0209126014FE7461B622F6150770B64
:1047500032E3369FF001379FF00D1124ED5EFC4FE0
:10476000428767E3F1CD813091F4209126014FE734
:10477000461B622F6150770B32E3369FF001379F63
:10478000F00D1124ED5EFC4F468F69E3DDCD8230E4
:1047900091F4209126014FE7461B622F6150770B61
:1047A00032E3369FF001379FF00D1124ED5EFC4F90
:1047B000448B68E3C9CD833009F08DCD209126016B
:1047C0004FE7461B622F6150770B32E3369FF001B3
:1047D000379FF00D1124ED5EFC4F40A76AE3B4CD86
:1047E000811111C020912601422F4150550B32E317
:1047F000349FF001359FF00D1124ED5EFC4F608772
:10480000462F63E3A1CD813089F420912601622FE8
:104810006150770B32E3369FF001379FF00D112482
:10482000ED5EFC4FC48F4C2F65E38ECD823089F452
:1048300020912601422F4150550B32E3349FF00165
:10484000359FF00D1124ED5EFC4F628B462F64E323
:104850007BCD833009F03FCD20912601622F61503E
:10486000770B32E3369FF001379FF00D1124ED5E98
:10487000FC4FC6A34C2F66E367CD811111C0209178
:104880002601422F4150550B32E3349FF001359FF2
:10489000F00D1124ED5EFC4F6187462F6BE354CD84
:1048A000813089F420912601622F6150770B32E329
:1048B000369FF001379FF00D1124ED5EFC4FC58F40
:1048C0004C2F6DE341CD823089F420912601422F97
:1048D0004150550B32E3349FF001359FF00D112408
:1048E000ED5EFC4F638B462F6CE32ECD833009F0D9
:1048F000F2CC20912601622F6150770B32E3369F74
:10490000F001379FF00D1124ED5EFC4FC7A34C2F33
:104910006EE31ACD811111C020912601422F415022
:10492000550B32E3349FF001359FF00D1124ED5EFD
:10493000FC4F6387462F6AE507CD813089F42091CB
:104940002601622F6150770B32E3369FF001379FCB
:10495000F00D1124ED5EFC4FC78F4C2F6CE5F4CCAD
:10496000823089F420912601422F4150550B32E3C9
:10497000349FF001359FF00D1124ED5EFC4F658BE7
:10498000462F6BE5E1CC833009F0A5CC20912601C0
:10499000622F6150770B32E3369FF001379FF00DA5
:1049A0001124ED5EFC4FC1A74C2F6DE5CDCC8111DC
:1049B00011C020912601422F4150550B32E3349F04
:1049C000F001359FF00D1124ED5EFC4F65A7462FD9
:1049D00066E4BACC813089F420912601622F6150BF
:1049E000770B32E3369FF001379FF00D1124ED5E17
:1049F000FC4FC7A74C2F68E4A7CC823089F42091E4
:104A00002601422F4150550B32E3349FF001359F70
:104A1000F00D1124ED5EFC4F66A7462F67E494CCA1
:104A2000833009F058CC20912601622F6150770B1A
:104A300032E3369FF001379FF00D1124ED5EFC4FFD
:104A4000C0AB4C2F69E480CC41E061E082EB9FE099
:104A50000E941C406EE071E082EB9FE00E940445E2
:104A6000D13031F4C093230121E04C2F61E06CCCB4
:104A7000D23089F420912601422F4150550B32E368
:104A8000349FF001359FF00D1124ED5EFC4FC2A75D
:104A90004C2F6BE459CCD33009F01DCC209126016A
:104AA000622F6150770B32E3369FF001379FF00D94
:104AB0001124ED5EFC4FC3A74C2F6CE445CC7F92D4
:104AC0008F929F92AF92BF92CF92DF92EF92FF921E
:104AD0000F931F93CF93DF9300D000D0CDB7DEB7F5
:104AE00082E694E00E94900C809121010E94104285
:104AF00023E0959587952A95E1F789838091200198
:104B00000E94104233E0959587953A95E1F78A83A4
:104B100080911F010E94104243E0959587954A9528
:104B2000E1F78B8380911E010E94104253E095951E
:104B300087955A95E1F78C836FE0C62E63E0D62EF9
:104B4000CE0101965C017C0101E07FE7872EF60132
:104B500081916F01F70110818E5F811B853008F410
:104B6000A3C082E694E00E94900C41E0602F82EBAB
:104B70009FE00E941C40133010F4F7011082F701EF
:104B800080818D3708F08082F7011081F60131971E
:104B9000108380912401813009F067C0C7018A1910
:104BA0009B098130910509F042C061E972E082EB16
:104BB0009FE00E942845612F62956F7070E090E041
:104BC00080E00E944C4720E030E040E05FE30E943C
:104BD00036460E941447AB01BC012AE030E082EB6C
:104BE0009FE00E9483457E2C7A18809125018230B7
:104BF00009F04EC0612F872D0E943321FFEFEF1A7D
:104C0000FF0A0C5F013109F0A2CF0F900F900F90B7
:104C10000F90DF91CF911F910F91FF90EF90DF9058
:104C2000CF90BF90AF909F908F907F900895039703
:104C300019F5103238F464E972E082EB9FE00E94CB
:104C40002845D1CF80EE810F68E972E08032A8F369
:104C500080EC810F6CE972E0803278F380EA810F9A
:104C6000803208F660EA72E0E8CF8C3029F464EA1A
:104C700072E0103410F7DFCF812F90E00E94B5066C
:104C80004AE050E0612F82EB9FE00E94DF45ABCF0E
:104C900086E0982E90922601612F872D0E94332165
:104CA0009A949110F7CFAACF41E0602F82EB9FE05A
:104CB0000E941C40A3CFCF9380910E03811108C0A6
:104CC0000E945D018093B10F843011F40E94270E81
:104CD000C1E0C0930E0382E694E00E94900C0E9413
:104CE0005D018093B10F0E940421909125019230C3
:104CF00009F466C020F4913091F0CF91089593307B
:104D000009F487C09430C9F78091B10F833008F05F
:104D1000DCC0813008F4E3C00E94E5145CC08091DF
:104D2000B10F823009F43FC068F4882399F08130D4
:104D300021F7809126018150A1F180932601CF9126
:104D40000C940A198430B9F1E0F08530B1F682E0B4
:104D500090E033C0E0912601E150FF0BE45AFB4F95
:104D600080818F5F8083082E000C990B2091020DAB
:104D70003091030D8217930709F41082CF910C94A0
:104D80004515E0912601E150FF0BE45AFB4F80816D
:104D9000815080838F3F91F78091020D81508083F5
:104DA000EDCF86E0CACF809126018F5F873029F64C
:104DB00090932601C4CF81E090E0CF910C94ED1F39
:104DC0008091B10F8230C1F008F07FC0882309F4D0
:104DD00086C0813041F0CF910C945F25C0932401AF
:104DE0000E94C519F8CF80912601815019F0809357
:104DF0002601F6CF86E0FBCF809126018F5F8730BA
:104E0000B1F7C0932601ECCF81E090E00E94ED1F46
:104E1000E2CFE091B10FE73008F06FCFF0E0ED5E48
:104E2000F84D0C941F4A1A275F275F273F27DB2680
:104E3000A726622780915C048F5F80935C04082E14
:104E4000000C990B2091020D3091030D82179307EE
:104E500011F410925C0480915C0480935D04809353
:104E60005E0480935F048093600480936104C6E0D5
:104E7000C09326010E944515C150D1F73ECF8091C5
:104E80005C04815080935C048F3F29F48091020D73
:104E9000815080935C0480915C0480935D048093D6
:104EA0005E0480935F048093600480936104C6E095
:104EB000C09326010E944515C150D1F71ECFCF9156
:104EC0000C94E514CF910C94FE17843009F49CCF18
:104ED00078F0853009F07FCF82E090E097CF809125
:104EE00024018F5F8E3009F479CF8093240178CF2D
:104EF000809124018150C9F78DE0F7CF8F929F9266
:104F0000BF92CF92DF92EF92FF920F931F93CF93B6
:104F1000DF93082FB62E642F70E090E080E00E94AF
:104F20004A4720E030E04EEF52E40E94A2462BE7D1
:104F300034E14EE25EE30E94454820E030E04EEF6F
:104F400052E40E94D8470E941447162F80912501F1
:104F50008350823008F0E5C080915A048013FFC06E
:104F600084E5882E84E0982E6401D0E0C0E0F6014C
:104F7000F1906F01FB1049C0EC2EE3948091220167
:104F8000813488F02FE730E040E050E061E270E0EB
:104F900080E090E00E940646462F2E2D6DE482E6CA
:104FA00094E00E9427070E2D212F4F2D60E882E606
:104FB00094E00E94E606212F4F2D60E982E694E0FE
:104FC0000E94E606CE5BDB4F81E08883809116016C
:104FD000882309F4C4C08091A80F8111C0C040E0AB
:104FE00060E082EB9FE00E941C4067E082EB9FE064
:104FF000DF91CF911F910F91FF90EF90DF90CF90B5
:10500000BF909F908F900C94194182E694E00E948B
:10501000900C2196C630D10509F0A9CF8091540497
:1050200080934104C4E5D4E08991909141048917AB
:1050300018F481118093410482E694E00E94900C60
:10504000F4E0CA35DF0781F726E030E040E050E0C9
:1050500060E070E0CB010E9406466B017C01FB0121
:10506000EC5AFB4F90818091410498130EC08FEF52
:10507000C81AD80AE80AF80A96E0C916D104E10469
:10508000F10419F4C12CD12C7601D0E0C0E0F40178
:1050900081914F0181113BC06E01DD0FEE08FF08C9
:1050A000C1E0CC0D80912201813488F02FE730E0FF
:1050B00040E050E061E270E080E090E00E9406464F
:1050C000462F2C2F6DE482E694E00E942707C6014C
:1050D0008C5A9B4F4C010C2F212FFC01408160E822
:1050E00082E694E00E94E606212F4B2D60E982E6DD
:1050F00094E00E94E606F401B082F601E25BFB4F09
:1051000081E08083F601EE5BFB4F80835FCF82E618
:1051100094E00E94900C2196C630D10509F0B7CFDB
:10512000BFCF212F4B2D60E982E694E00E94E60676
:1051300040E060E082EB9FE00E941C4062EE72E083
:1051400082EB9FE0DF91CF911F910F91FF90EF9045
:10515000DF90CF90BF909F908F900C942845DF9167
:10516000CF911F910F91FF90EF90DF90CF90BF9064
:105170009F908F900895CF92DF92FF920F931F938D
:10518000CF93DF93162FF42E9091250193509230F8
:1051900008F061C090915A0498136DC084E5C82E40
:1051A00084E0D82ED0E0C0E082E694E00E94900C2B
:1051B000F60181916F01181348C0809140049E014F
:1051C0002E5B3B4F6901882379F1C85BDB4F81E09F
:1051D0008883F6011082E2E4F4E028E434E080E021
:1051E000919191118F5F2E173F07D1F780933F0464
:1051F000811141C0809116018823E9F18091A80FA7
:10520000811139C040E060E082EB9FE00E941C40C9
:1052100062E082EB9FE0DF91CF911F910F91FF90B1
:10522000DF90CF900C9419410C2F0F5F2F2D412F41
:1052300060E882E694E00E94E606FE01E25BFB4F36
:105240001082CC5ADB4F1882C4CF2196C630D105CC
:1052500009F0AACFC0CF082F242F462F60E882E69E
:1052600094E00E94E60640E060E082EB9FE00E944E
:105270001C4060E0CECFDF91CF911F910F91FF9046
:10528000DF90CF900895CF93CFB7F8948091CD0F52
:10529000811127C0E8EFF1E08491E8EDF1E094910D
:1052A000E82FF0E0EE0FFF1FE85DFD4FA591B491F0
:1052B000EC91E92321F461E084E00E94A24261E0E4
:1052C00084E00E9466428CB580618CBD8CB58064A0
:1052D0008CBD61E087E00E94664261E085E00E944B
:1052E00066428091CD0F8F5F8093CD0FCFBFCF915E
:1052F00008950F931F93DC011996EC91EE2321F092
:105300001F910F910C94C03D01E010E00E947A3E85
:105310001F910F910895CF93DF93EC0180960E9427
:10532000EA3E882331F088819981DF91CF910C94F6
:105330001A3C80E0DF91CF910895CF92DF92EF92F7
:10534000FF92CF93DF93EC01CC84DD84EE84FF8465
:105350009C01245F3F4FB701A6018E819F810E946F
:10536000E738882359F09A81C114D104E104F1048B
:1053700061F490649A839A8190689A83DF91CF91C7
:10538000FF90EF90DF90CF9008952FEFC21AD20ACE
:10539000E20AF20A4C855D856E857F854C155D05B8
:1053A0006E057F0541F39F7BE5CFAF92BF92CF9211
:1053B000DF92EF92FF920F931F93CF93DF93EC0155
:1053C000888185FF0DC010E0812FDF91CF911F9163
:1053D0000F91FF90EF90DF90CF90BF90AF90089526
:1053E00088899989AA89BB8981159E4FAF41B105EA
:1053F00050F7CE010E949D29182F882321F3EE81BA
:10540000FF81CC84DD84EE84FF8432E0C31AD108AE
:10541000E108F108848104C0CC0CDD1CEE1CFF1CEB
:105420008A95D2F780899189A289B389C80ED91E3D
:10543000EA1EFB1E25E0B701A601CF0180960E945F
:10544000283F5C01892B09F4BECF80E092E0F50192
:105450009C01119221503040E1F701E0EE81FF8183
:105460008281081780F49501B701A601400F511DF4
:10547000611D711D808191810E947929882309F421
:10548000A2CF0F5FEBCF848120E032E002C0220F79
:10549000331F8A95E2F788899989AA89BB89820F87
:1054A000931FA11DB11D888B998BAA8BBB8B8CCFB1
:1054B000CF93DF93EC01262F4C895D896E897F891C
:1054C0008E819F8180960E94283F009771F02C81E9
:1054D0003D812F70332745E0220F331F4A95E1F7B6
:1054E000820F931FDF91CF91089590E080E0FACF73
:1054F000FC01808181110FC080E2DF01982F1D9295
:105500009A95E9F777836683DB0115969C91903134
:1055100029F0903211F080E0089580E4808381E0EA
:10552000828308952F923F924F925F926F927F9263
:105530008F929F92AF92BF92CF92DF92EF92FF92A3
:105540000F931F93CF93DF9300D000D01F92CDB75E
:10555000DEB79D838C834B017A01DC0112968C911E
:10556000129780FFFCC08C9183FF1AC058968D91D2
:105570009D910D90BC91A02DEC81FD8140895189B8
:1055800062897389841B950BA60BB70BA70170E08A
:1055900060E0481759076A077B07C8F07C0117C00D
:1055A00085FF15C0AC81BD811696ED91FC911797D2
:1055B0008681978115E0880F991F1A95E1F750961B
:1055C0002D913C91821B930B8417950738F367014B
:1055D0001982EC81FD813C96FB83EA83C114D104DE
:1055E00009F43BC1AC81BD8150964D915D916D91A7
:1055F0007C9153971696ED91FC9117978A01117043
:105600008C912A013B01A9E07694679457944794C2
:10561000AA95D1F785FF37C0848D958DA68DB78D5E
:10562000480E591E6A1E7B1EAC81BD8116962D90B8
:105630003C900115110509F09DC0C114B2E0DB06D4
:1056400008F498C0F10147A150A561A572A54416C0
:1056500055066606770609F48DC0C114F4E0DF062E
:1056600008F0B4C001E010E09401B301A201F1011F
:1056700081A192A10E94103E882309F470C0A12C40
:1056800082E0B82E90C09381942199830115110571
:1056900091F4911110C0452B462B472BC1F586FF85
:1056A00033C0848D958DA68DB78DEC81FD81848767
:1056B0009587A687B787AC81BD811696ED91FC9141
:1056C00017971C964D905D906D907C901F97B2E05F
:1056D0004B1A510861087108848104C0440C551CA0
:1056E000661C771C8A95D2F780899189A289B38933
:1056F000840D951DA61DB71D2C013D01E9814E0E9F
:10570000511C611C711C90CFEC81FD81CACFAC8112
:10571000BD811C964D915D916D917C911F9783FF8A
:105720000FC012968C91129786FF0AC04F5F5F4F91
:105730006F4F7F4FFD014487558766877787BBCFC3
:105740002A813B81CF010E94F53787FD08C0811176
:10575000B2CFAC81BD818C91807709F07EC0AC81E5
:10576000BD8111968C911197826011968C938FEF69
:105770009FEF76C080E092E0801B910B56018C1564
:105780009D0508F45C0120E0B301A201C1018096EF
:105790000E94283F009719F3BC01600F711FA501FB
:1057A000C4010E94F34A8A0C9B1CEC81FD81808914
:1057B0009189A289B3898A0D9B1DA11DB11D808B82
:1057C000918BA28BB38BCA18DB0808CFC601892F37
:1057D00099278695B0E0A0E0EC81FD81208125FD30
:1057E00010C0F1012281F9812F1B330B8901330F86
:1057F000220B330B081719072A073B0710F4D901AE
:10580000C8018C019D01E9E0000F111F221F331F09
:10581000EA95D1F758018C014415550566057705C1
:1058200060F49401B301A201D10191968D919C91F4
:105830000E94103E8111B7CF92CF840D951DA61DF9
:10584000B71D481759076A077B0758F7C1018096AB
:105850000E94EA3E8111E5CF82CFC7018C199D09D4
:105860000F900F900F900F900F90DF91CF911F919D
:105870000F91FF90EF90DF90CF90BF90AF909F90EF
:105880008F907F906F905F904F903F902F900895F2
:10589000EF92FF920F931F93CF93DF931F92CDB799
:1058A000DEB77C01962FF70140895189628973899F
:1058B0008A019B0185E036952795179507958A956E
:1058C000D1F70F7011F091112BC041E050E0BE01F3
:1058D0006F5F7F4FC7010E94922A813051F090E0A4
:1058E00080E00F90DF91CF911F910F91FF90EF908B
:1058F0000895F70180899189A289B3894F96A11DE6
:10590000B11D808B918BA28BB38BF7018681978120
:105910008B96F0E20F9F90011124820F931FE1CF2D
:10592000405E5F4F6F4F7F4F408B518B628B738B0D
:10593000ECCF4F925F926F927F928F929F92AF9235
:10594000BF92CF92DF92EF92FF920F931F93CF936C
:10595000DF93EC014A015B014C845D846E847F849B
:105960002881222309F45CC0488959896A897B8986
:10597000481559056A057B0581F081149104A1043D
:10598000B10469F41C861D861E861F86888A998A42
:10599000AA8ABB8A8A818F7D8A8381E046C023FFE1
:1059A0002CC0888D998DAA8DBB8D88159905AA0567
:1059B000BB05B0F1EE81FF813481375F7501640171
:1059C00081E0C81AD108E108F108032E04C0F6945A
:1059D000E794D794C7940A94D2F78A8186FF36C099
:1059E0008C8D9D8DAE8DBF8D8C0D9D1DAE1DBF1DF3
:1059F0008C879D87AE87BF87C9CF25FFDBCFEE8120
:105A0000FF818681978125E0880F991F2A95E1F70C
:105A1000B0E0A0E088159905AA05BB0508F0B6CF4F
:105A20004C865D866E867F8680E0DF91CF911F91E8
:105A30000F91FF90EF90DF90CF90BF90AF909F902D
:105A40008F907F906F905F904F900895DB01CA0117
:105A50000197A109B10904C0B695A79597958795B7
:105A60003A95D2F7C816D906EA06FB0620F0452B70
:105A7000462B472B49F526FF22C0848D958DA68D98
:105A8000B78D8C879D87AE87BF878E01045F1F4FC0
:105A9000C114D104E104F10409F478CF4C855D858B
:105AA0006E857F8598018E819F810E94F53791E0F8
:105AB000C91AD108E108F108181654F3B1CF8C8D3A
:105AC0009D8DAE8DBF8DDDCFC81AD90AEA0AFB0ABB
:105AD000DCCF40E050E0BA010C94992CCF92DF92D9
